{
  "_format": "hh-sol-artifact-1",
  "contractName": "RelationshipManager",
  "sourceName": "contracts/RelationshipManager.sol",
  "abi": [
    {
      "inputs": [
        {
          "internalType": "address",
          "name": "_paymentToken",
          "type": "address"
        }
      ],
      "stateMutability": "nonpayable",
      "type": "constructor"
    },
    {
      "inputs": [
        {
          "internalType": "address",
          "name": "owner",
          "type": "address"
        }
      ],
      "name": "OwnableInvalidOwner",
      "type": "error"
    },
    {
      "inputs": [
        {
          "internalType": "address",
          "name": "account",
          "type": "address"
        }
      ],
      "name": "OwnableUnauthorizedAccount",
      "type": "error"
    },
    {
      "inputs": [],
      "name": "ReentrancyGuardReentrantCall",
      "type": "error"
    },
    {
      "anonymous": false,
      "inputs": [
        {
          "indexed": true,
          "internalType": "bytes32",
          "name": "relationshipId",
          "type": "bytes32"
        },
        {
          "indexed": false,
          "internalType": "uint256",
          "name": "messageCount",
          "type": "uint256"
        }
      ],
      "name": "MessageSent",
      "type": "event"
    },
    {
      "anonymous": false,
      "inputs": [
        {
          "indexed": true,
          "internalType": "address",
          "name": "previousOwner",
          "type": "address"
        },
        {
          "indexed": true,
          "internalType": "address",
          "name": "newOwner",
          "type": "address"
        }
      ],
      "name": "OwnershipTransferred",
      "type": "event"
    },
    {
      "anonymous": false,
      "inputs": [
        {
          "indexed": true,
          "internalType": "bytes32",
          "name": "relationshipId",
          "type": "bytes32"
        },
        {
          "indexed": true,
          "internalType": "address",
          "name": "from",
          "type": "address"
        },
        {
          "indexed": true,
          "internalType": "address",
          "name": "to",
          "type": "address"
        },
        {
          "indexed": false,
          "internalType": "uint256",
          "name": "amount",
          "type": "uint256"
        }
      ],
      "name": "PaymentMade",
      "type": "event"
    },
    {
      "anonymous": false,
      "inputs": [
        {
          "indexed": true,
          "internalType": "bytes32",
          "name": "relationshipId",
          "type": "bytes32"
        }
      ],
      "name": "RelationshipAccepted",
      "type": "event"
    },
    {
      "anonymous": false,
      "inputs": [
        {
          "indexed": true,
          "internalType": "bytes32",
          "name": "relationshipId",
          "type": "bytes32"
        },
        {
          "indexed": false,
          "internalType": "address",
          "name": "pausedBy",
          "type": "address"
        }
      ],
      "name": "RelationshipPaused",
      "type": "event"
    },
    {
      "anonymous": false,
      "inputs": [
        {
          "indexed": true,
          "internalType": "bytes32",
          "name": "relationshipId",
          "type": "bytes32"
        },
        {
          "indexed": true,
          "internalType": "address",
          "name": "sponsor",
          "type": "address"
        },
        {
          "indexed": true,
          "internalType": "address",
          "name": "partner",
          "type": "address"
        },
        {
          "indexed": false,
          "internalType": "enum RelationshipManager.PricingModel",
          "name": "pricingModel",
          "type": "uint8"
        },
        {
          "indexed": false,
          "internalType": "uint256",
          "name": "rate",
          "type": "uint256"
        }
      ],
      "name": "RelationshipProposed",
      "type": "event"
    },
    {
      "anonymous": false,
      "inputs": [
        {
          "indexed": true,
          "internalType": "bytes32",
          "name": "relationshipId",
          "type": "bytes32"
        },
        {
          "indexed": false,
          "internalType": "address",
          "name": "terminatedBy",
          "type": "address"
        }
      ],
      "name": "RelationshipTerminated",
      "type": "event"
    },
    {
      "inputs": [
        {
          "internalType": "bytes32",
          "name": "relationshipId",
          "type": "bytes32"
        }
      ],
      "name": "acceptRelationship",
      "outputs": [],
      "stateMutability": "nonpayable",
      "type": "function"
    },
    {
      "inputs": [
        {
          "internalType": "bytes32",
          "name": "relationshipId",
          "type": "bytes32"
        }
      ],
      "name": "calculatePaymentDue",
      "outputs": [
        {
          "internalType": "uint256",
          "name": "",
          "type": "uint256"
        }
      ],
      "stateMutability": "view",
      "type": "function"
    },
    {
      "inputs": [
        {
          "internalType": "bytes32",
          "name": "relationshipId",
          "type": "bytes32"
        }
      ],
      "name": "getRelationship",
      "outputs": [
        {
          "internalType": "address",
          "name": "sponsor",
          "type": "address"
        },
        {
          "internalType": "address",
          "name": "partner",
          "type": "address"
        },
        {
          "internalType": "enum RelationshipManager.RelationshipStatus",
          "name": "status",
          "type": "uint8"
        },
        {
          "internalType": "enum RelationshipManager.PricingModel",
          "name": "pricingModel",
          "type": "uint8"
        },
        {
          "internalType": "uint256",
          "name": "rate",
          "type": "uint256"
        },
        {
          "internalType": "uint256",
          "name": "startDate",
          "type": "uint256"
        },
        {
          "internalType": "uint256",
          "name": "totalPaid",
          "type": "uint256"
        },
        {
          "internalType": "uint256",
          "name": "messageCount",
          "type": "uint256"
        }
      ],
      "stateMutability": "view",
      "type": "function"
    },
    {
      "inputs": [
        {
          "internalType": "address",
          "name": "sponsor",
          "type": "address"
        },
        {
          "internalType": "address",
          "name": "partner",
          "type": "address"
        }
      ],
      "name": "getRelationshipId",
      "outputs": [
        {
          "internalType": "bytes32",
          "name": "",
          "type": "bytes32"
        }
      ],
      "stateMutability": "pure",
      "type": "function"
    },
    {
      "inputs": [
        {
          "internalType": "address",
          "name": "user",
          "type": "address"
        }
      ],
      "name": "getUserRelationships",
      "outputs": [
        {
          "internalType": "bytes32[]",
          "name": "",
          "type": "bytes32[]"
        }
      ],
      "stateMutability": "view",
      "type": "function"
    },
    {
      "inputs": [
        {
          "internalType": "bytes32",
          "name": "relationshipId",
          "type": "bytes32"
        },
        {
          "internalType": "uint256",
          "name": "amount",
          "type": "uint256"
        }
      ],
      "name": "makePayment",
      "outputs": [],
      "stateMutability": "nonpayable",
      "type": "function"
    },
    {
      "inputs": [],
      "name": "owner",
      "outputs": [
        {
          "internalType": "address",
          "name": "",
          "type": "address"
        }
      ],
      "stateMutability": "view",
      "type": "function"
    },
    {
      "inputs": [
        {
          "internalType": "bytes32",
          "name": "relationshipId",
          "type": "bytes32"
        }
      ],
      "name": "pauseRelationship",
      "outputs": [],
      "stateMutability": "nonpayable",
      "type": "function"
    },
    {
      "inputs": [],
      "name": "paymentToken",
      "outputs": [
        {
          "internalType": "contract IERC20",
          "name": "",
          "type": "address"
        }
      ],
      "stateMutability": "view",
      "type": "function"
    },
    {
      "inputs": [
        {
          "internalType": "address",
          "name": "partner",
          "type": "address"
        },
        {
          "internalType": "enum RelationshipManager.PricingModel",
          "name": "pricingModel",
          "type": "uint8"
        },
        {
          "internalType": "uint256",
          "name": "rate",
          "type": "uint256"
        }
      ],
      "name": "proposeRelationship",
      "outputs": [],
      "stateMutability": "nonpayable",
      "type": "function"
    },
    {
      "inputs": [
        {
          "internalType": "bytes32",
          "name": "relationshipId",
          "type": "bytes32"
        }
      ],
      "name": "recordMessage",
      "outputs": [],
      "stateMutability": "nonpayable",
      "type": "function"
    },
    {
      "inputs": [
        {
          "internalType": "bytes32",
          "name": "",
          "type": "bytes32"
        }
      ],
      "name": "relationships",
      "outputs": [
        {
          "internalType": "address",
          "name": "sponsor",
          "type": "address"
        },
        {
          "internalType": "address",
          "name": "partner",
          "type": "address"
        },
        {
          "internalType": "enum RelationshipManager.RelationshipStatus",
          "name": "status",
          "type": "uint8"
        },
        {
          "internalType": "enum RelationshipManager.PricingModel",
          "name": "pricingModel",
          "type": "uint8"
        },
        {
          "internalType": "uint256",
          "name": "rate",
          "type": "uint256"
        },
        {
          "internalType": "uint256",
          "name": "startDate",
          "type": "uint256"
        },
        {
          "internalType": "uint256",
          "name": "lastPaymentDate",
          "type": "uint256"
        },
        {
          "internalType": "uint256",
          "name": "totalPaid",
          "type": "uint256"
        },
        {
          "internalType": "uint256",
          "name": "messageCount",
          "type": "uint256"
        }
      ],
      "stateMutability": "view",
      "type": "function"
    },
    {
      "inputs": [],
      "name": "renounceOwnership",
      "outputs": [],
      "stateMutability": "nonpayable",
      "type": "function"
    },
    {
      "inputs": [
        {
          "internalType": "bytes32",
          "name": "relationshipId",
          "type": "bytes32"
        }
      ],
      "name": "resumeRelationship",
      "outputs": [],
      "stateMutability": "nonpayable",
      "type": "function"
    },
    {
      "inputs": [
        {
          "internalType": "bytes32",
          "name": "relationshipId",
          "type": "bytes32"
        }
      ],
      "name": "terminateRelationship",
      "outputs": [],
      "stateMutability": "nonpayable",
      "type": "function"
    },
    {
      "inputs": [
        {
          "internalType": "address",
          "name": "newOwner",
          "type": "address"
        }
      ],
      "name": "transferOwnership",
      "outputs": [],
      "stateMutability": "nonpayable",
      "type": "function"
    },
    {
      "inputs": [
        {
          "internalType": "address",
          "name": "",
          "type": "address"
        },
        {
          "internalType": "uint256",
          "name": "",
          "type": "uint256"
        }
      ],
      "name": "userRelationships",
      "outputs": [
        {
          "internalType": "bytes32",
          "name": "",
          "type": "bytes32"
        }
      ],
      "stateMutability": "view",
      "type": "function"
    }
  ],
  "bytecode": "0x608060405234801561001057600080fd5b5060405161161638038061161683398101604081905261002f916100d8565b338061005557604051631e4fbdf760e01b81526000600482015260240160405180910390fd5b61005e81610088565b5060018055600280546001600160a01b0319166001600160a01b0392909216919091179055610108565b600080546001600160a01b038381166001600160a01b0319831681178455604051919092169283917f8be0079c531659141344cd1fd0a4f28419497f9722a3daafe3b4186f6b6457e09190a35050565b6000602082840312156100ea57600080fd5b81516001600160a01b038116811461010157600080fd5b9392505050565b6114ff806101176000396000f3fe608060405234801561001057600080fd5b506004361061010b5760003560e01c8063715018a6116100a2578063a49294d511610071578063a49294d5146102f5578063a768b36d14610308578063b6c99c831461031b578063da042ddd1461032e578063f2fde38b1461034157600080fd5b8063715018a61461024f5780638da5cb5b14610257578063950ef8f614610268578063a31131541461027b57600080fd5b8063375e6855116100de578063375e6855146101965780633d1b418d146102165780635c665e7214610229578063646317d51461023c57600080fd5b8063200537f21461011057806327131c00146101255780633013ce291461014b578063329bf57e14610176575b600080fd5b61012361011e366004611158565b610354565b005b61013861013336600461118d565b610474565b6040519081526020015b60405180910390f35b60025461015e906001600160a01b031681565b6040516001600160a01b039091168152602001610142565b6101896101843660046111b7565b6104a5565b60405161014291906111d2565b6102016101a4366004611158565b600360208190526000918252604090912080546001820154600283015493830154600484015460058501546006909501546001600160a01b03948516969484169560ff600160a01b8604811696600160a81b909604169493929189565b60405161014299989796959493929190611250565b6101236102243660046112af565b610511565b610123610237366004611158565b610846565b61012361024a3660046112d1565b61091a565b610123610c4b565b6000546001600160a01b031661015e565b610123610276366004611158565b610c5f565b6102e1610289366004611158565b60009081526003602081905260409091208054600182015460028301549383015460058401546006909401546001600160a01b03938416969383169560ff600160a01b8504811696600160a81b909504169490939190565b604051610142989796959493929190611314565b61013861030336600461136c565b610d3a565b610123610316366004611158565b610d85565b610123610329366004611158565b610ea3565b61013861033c366004611158565b610fea565b61012361034f3660046111b7565b611073565b600081815260036020526040902060018101546001600160a01b031633146103c35760405162461bcd60e51b815260206004820152601760248201527f4f6e6c7920706172746e65722063616e2061636365707400000000000000000060448201526064015b60405180910390fd5b60006001820154600160a01b900460ff1660048111156103e5576103e5611216565b146104235760405162461bcd60e51b815260206004820152600e60248201526d496e76616c69642073746174757360901b60448201526064016103ba565b60018101805460ff60a01b1916600160a01b1790554260038201819055600482015560405182907f6d68333e05cd3890bf2743c4e464c9a70a2d6bcca63336156ac96dceb67ab50d90600090a25050565b6004602052816000526040600020818154811061049057600080fd5b90600052602060002001600091509150505481565b6001600160a01b03811660009081526004602090815260409182902080548351818402810184019094528084526060939283018282801561050557602002820191906000526020600020905b8154815260200190600101908083116104f1575b50505050509050919050565b6105196110b1565b600082815260036020526040902080546001600160a01b031633146105805760405162461bcd60e51b815260206004820152601d60248201527f4f6e6c792073706f6e736f722063616e206d616b65207061796d656e7400000060448201526064016103ba565b600180820154600160a01b900460ff1660048111156105a1576105a1611216565b146105be5760405162461bcd60e51b81526004016103ba9061139f565b6000821161060e5760405162461bcd60e51b815260206004820152601d60248201527f416d6f756e74206d7573742062652067726561746572207468616e203000000060448201526064016103ba565b6000600182810154600160a81b900460ff169081111561063057610630611216565b036107045760006201518082600401544261064b91906113ec565b61065591906113ff565b90506000811161069d5760405162461bcd60e51b815260206004820152601360248201527214185e5b595b9d081b9bdd08191d59481e595d606a1b60448201526064016103ba565b60008260020154826106af9190611421565b9050808410156107015760405162461bcd60e51b815260206004820152601b60248201527f496e73756666696369656e74207061796d656e7420616d6f756e74000000000060448201526064016103ba565b50505b60025460018201546040516323b872dd60e01b81523360048201526001600160a01b039182166024820152604481018590529116906323b872dd906064016020604051808303816000875af1158015610761573d6000803e3d6000fd5b505050506040513d601f19601f820116820180604052508101906107859190611438565b6107d15760405162461bcd60e51b815260206004820152601760248201527f5061796d656e74207472616e73666572206661696c656400000000000000000060448201526064016103ba565b818160050160008282546107e5919061145a565b909155505042600482015560018101546040518381526001600160a01b0390911690339085907f824ce304716242026cadabca88d83da9c69c89022a8f4f60410c47ae9cc71de19060200160405180910390a45061084260018055565b5050565b600081815260036020526040902080546001600160a01b0316331480610878575060018101546001600160a01b031633145b6108945760405162461bcd60e51b81526004016103ba9061146d565b60026001820154600160a01b900460ff1660048111156108b6576108b6611216565b146109035760405162461bcd60e51b815260206004820152601760248201527f52656c6174696f6e73686970206e6f742070617573656400000000000000000060448201526064016103ba565b600101805460ff60a01b1916600160a01b17905550565b6001600160a01b0383166109705760405162461bcd60e51b815260206004820152601760248201527f496e76616c696420706172746e6572206164647265737300000000000000000060448201526064016103ba565b336001600160a01b038416036109c85760405162461bcd60e51b815260206004820152601a60248201527f43616e6e6f742070726f706f736520746f20796f757273656c6600000000000060448201526064016103ba565b60008111610a185760405162461bcd60e51b815260206004820152601b60248201527f52617465206d7573742062652067726561746572207468616e2030000000000060448201526064016103ba565b6000610a243385610d3a565b6000818152600360205260409020549091506001600160a01b031615610a8c5760405162461bcd60e51b815260206004820152601b60248201527f52656c6174696f6e7368697020616c726561647920657869737473000000000060448201526064016103ba565b60408051610120810182523381526001600160a01b038616602082015290810160008152602001846001811115610ac557610ac5611216565b8152602080820185905260006040808401829052606084018290526080840182905260a090930181905284815260038252829020835181546001600160a01b039182166001600160a01b0319918216178355928501516001830180549190921693811684178255938501519193919290916001600160a81b03191617600160a01b836004811115610b5857610b58611216565b021790555060608201518160010160156101000a81548160ff02191690836001811115610b8757610b87611216565b02179055506080820151600282015560a0820151600382015560c082015160048083019190915560e083015160058301556101009092015160069091015533600081815260209283526040808220805460018181018355918452858420018690556001600160a01b038916808452828420805492830181558452949092209091018490555183907febf6fc3232655ccda0e759de6e25f9df9918629f6189a5d8e43aeac2868ecf8490610c3d9088908890611495565b60405180910390a450505050565b610c536110db565b610c5d6000611108565b565b600081815260036020526040902080546001600160a01b0316331480610c91575060018101546001600160a01b031633145b610cad5760405162461bcd60e51b81526004016103ba9061146d565b600180820154600160a01b900460ff166004811115610cce57610cce611216565b14610ceb5760405162461bcd60e51b81526004016103ba9061139f565b60018101805460ff60a01b1916600160a11b17905560405133815282907f3a530cd4a4b67e813e0a17dc7c04e2e6a647b22f8c9bf2918a3cfa61ea6abc52906020015b60405180910390a25050565b6040516bffffffffffffffffffffffff19606084811b8216602084015283901b1660348201526000906048016040516020818303038152906040528051906020012090505b92915050565b600081815260036020526040902080546001600160a01b0316331480610db7575060018101546001600160a01b031633145b610dd35760405162461bcd60e51b81526004016103ba9061146d565b600180820154600160a01b900460ff166004811115610df457610df4611216565b1480610e1f575060026001820154600160a01b900460ff166004811115610e1d57610e1d611216565b145b610e5c5760405162461bcd60e51b815260206004820152600e60248201526d496e76616c69642073746174757360901b60448201526064016103ba565b60018101805460ff60a01b1916600160a21b17905560405133815282907f291d2f4e5beeb458f822287f01d014b3199b97d30ea9abd851f751d379f51a5790602001610d2e565b600081815260036020526040902080546001600160a01b0316331480610ed5575060018101546001600160a01b031633145b610ef15760405162461bcd60e51b81526004016103ba9061146d565b600180820154600160a01b900460ff166004811115610f1257610f12611216565b14610f2f5760405162461bcd60e51b81526004016103ba9061139f565b60018082810154600160a81b900460ff1690811115610f5057610f50611216565b14610f9d5760405162461bcd60e51b815260206004820152601760248201527f4e6f74207065722d6d6573736167652070726963696e6700000000000000000060448201526064016103ba565b600681018054906000610faf836114b0565b9190505550817f5aa2d708878e2b0fd1c4b1082ff2047e439fed9a55fe39ec494b38ff7a36b8f18260060154604051610d2e91815260200190565b600081815260036020526040812081600182810154600160a81b900460ff169081111561101957611019611216565b036110585760006201518082600401544261103491906113ec565b61103e91906113ff565b90508160020154816110509190611421565b949350505050565b8060020154816006015461106c9190611421565b9392505050565b61107b6110db565b6001600160a01b0381166110a557604051631e4fbdf760e01b8152600060048201526024016103ba565b6110ae81611108565b50565b6002600154036110d457604051633ee5aeb560e01b815260040160405180910390fd5b6002600155565b6000546001600160a01b03163314610c5d5760405163118cdaa760e01b81523360048201526024016103ba565b600080546001600160a01b038381166001600160a01b0319831681178455604051919092169283917f8be0079c531659141344cd1fd0a4f28419497f9722a3daafe3b4186f6b6457e09190a35050565b60006020828403121561116a57600080fd5b5035919050565b80356001600160a01b038116811461118857600080fd5b919050565b600080604083850312156111a057600080fd5b6111a983611171565b946020939093013593505050565b6000602082840312156111c957600080fd5b61106c82611171565b6020808252825182820181905260009190848201906040850190845b8181101561120a578351835292840192918401916001016111ee565b50909695505050505050565b634e487b7160e01b600052602160045260246000fd5b6005811061123c5761123c611216565b9052565b6002811061123c5761123c611216565b6001600160a01b038a81168252891660208201526101208101611276604083018a61122c565b6112836060830189611240565b608082019690965260a081019490945260c084019290925260e083015261010090910152949350505050565b600080604083850312156112c257600080fd5b50508035926020909101359150565b6000806000606084860312156112e657600080fd5b6112ef84611171565b925060208401356002811061130357600080fd5b929592945050506040919091013590565b6001600160a01b03898116825288166020820152610100810161133a604083018961122c565b6113476060830188611240565b8560808301528460a08301528360c08301528260e08301529998505050505050505050565b6000806040838503121561137f57600080fd5b61138883611171565b915061139660208401611171565b90509250929050565b60208082526017908201527f52656c6174696f6e73686970206e6f7420616374697665000000000000000000604082015260600190565b634e487b7160e01b600052601160045260246000fd5b81810381811115610d7f57610d7f6113d6565b60008261141c57634e487b7160e01b600052601260045260246000fd5b500490565b8082028115828204841417610d7f57610d7f6113d6565b60006020828403121561144a57600080fd5b8151801515811461106c57600080fd5b80820180821115610d7f57610d7f6113d6565b6020808252600e908201526d139bdd08185d5d1a1bdc9a5e995960921b604082015260600190565b604081016114a38285611240565b8260208301529392505050565b6000600182016114c2576114c26113d6565b506001019056fea2646970667358221220497ee0d6efaf42a48ddbe8fde8a1bdcf7f76b22f9bc7bf8f3e0e132673bd675d64736f6c63430008140033",
  "linkReferences": {},
  "deployedLinkReferences": {}
}